{
  "contractName": "DistributionContract",
  "abi": [
    {
      "inputs": [
        {
          "internalType": "contract IERC20",
          "name": "token",
          "type": "address"
        }
      ],
      "stateMutability": "nonpayable",
      "type": "constructor"
    },
    {
      "anonymous": false,
      "inputs": [
        {
          "indexed": true,
          "internalType": "address",
          "name": "previousOwner",
          "type": "address"
        },
        {
          "indexed": true,
          "internalType": "address",
          "name": "newOwner",
          "type": "address"
        }
      ],
      "name": "OwnershipTransferred",
      "type": "event"
    },
    {
      "inputs": [],
      "name": "owner",
      "outputs": [
        {
          "internalType": "address",
          "name": "",
          "type": "address"
        }
      ],
      "stateMutability": "view",
      "type": "function"
    },
    {
      "inputs": [],
      "name": "renounceOwnership",
      "outputs": [],
      "stateMutability": "nonpayable",
      "type": "function"
    },
    {
      "inputs": [
        {
          "internalType": "address",
          "name": "newOwner",
          "type": "address"
        }
      ],
      "name": "transferOwnership",
      "outputs": [],
      "stateMutability": "nonpayable",
      "type": "function"
    },
    {
      "inputs": [
        {
          "internalType": "uint256",
          "name": "amount",
          "type": "uint256"
        }
      ],
      "name": "deposit",
      "outputs": [
        {
          "internalType": "bool",
          "name": "",
          "type": "bool"
        }
      ],
      "stateMutability": "nonpayable",
      "type": "function"
    },
    {
      "inputs": [
        {
          "internalType": "address[]",
          "name": "beneficiaries",
          "type": "address[]"
        },
        {
          "internalType": "uint256[]",
          "name": "amounts",
          "type": "uint256[]"
        }
      ],
      "name": "addBeneficiaries",
      "outputs": [
        {
          "internalType": "bool",
          "name": "",
          "type": "bool"
        }
      ],
      "stateMutability": "nonpayable",
      "type": "function"
    },
    {
      "inputs": [
        {
          "internalType": "address",
          "name": "beneficiary",
          "type": "address"
        },
        {
          "internalType": "uint256",
          "name": "amount",
          "type": "uint256"
        }
      ],
      "name": "addBeneficiary",
      "outputs": [
        {
          "internalType": "bool",
          "name": "",
          "type": "bool"
        }
      ],
      "stateMutability": "nonpayable",
      "type": "function"
    },
    {
      "inputs": [
        {
          "internalType": "address",
          "name": "beneficiary",
          "type": "address"
        },
        {
          "internalType": "uint256",
          "name": "amount",
          "type": "uint256"
        }
      ],
      "name": "decreaseReward",
      "outputs": [
        {
          "internalType": "bool",
          "name": "",
          "type": "bool"
        }
      ],
      "stateMutability": "nonpayable",
      "type": "function"
    },
    {
      "inputs": [
        {
          "internalType": "uint256",
          "name": "amount",
          "type": "uint256"
        }
      ],
      "name": "emergencyWithdraw",
      "outputs": [
        {
          "internalType": "bool",
          "name": "",
          "type": "bool"
        }
      ],
      "stateMutability": "nonpayable",
      "type": "function"
    },
    {
      "inputs": [
        {
          "internalType": "bool",
          "name": "lock",
          "type": "bool"
        }
      ],
      "name": "lockRewards",
      "outputs": [
        {
          "internalType": "bool",
          "name": "",
          "type": "bool"
        }
      ],
      "stateMutability": "nonpayable",
      "type": "function"
    },
    {
      "inputs": [],
      "name": "claim",
      "outputs": [
        {
          "internalType": "bool",
          "name": "",
          "type": "bool"
        }
      ],
      "stateMutability": "nonpayable",
      "type": "function"
    },
    {
      "inputs": [
        {
          "internalType": "address",
          "name": "account",
          "type": "address"
        }
      ],
      "name": "balanceOf",
      "outputs": [
        {
          "internalType": "uint256",
          "name": "",
          "type": "uint256"
        }
      ],
      "stateMutability": "view",
      "type": "function"
    }
  ],
  "bytecode": "0x60806040523480156200001157600080fd5b5060405162001a1b38038062001a1b8339818101604052810190620000379190620001e9565b620000576200004b6200009f60201b60201c565b620000a760201b60201c565b80600160006101000a81548173ffffffffffffffffffffffffffffffffffffffff021916908373ffffffffffffffffffffffffffffffffffffffff160217905550506200021b565b600033905090565b60008060009054906101000a900473ffffffffffffffffffffffffffffffffffffffff169050816000806101000a81548173ffffffffffffffffffffffffffffffffffffffff021916908373ffffffffffffffffffffffffffffffffffffffff1602179055508173ffffffffffffffffffffffffffffffffffffffff168173ffffffffffffffffffffffffffffffffffffffff167f8be0079c531659141344cd1fd0a4f28419497f9722a3daafe3b4186f6b6457e060405160405180910390a35050565b600080fd5b600073ffffffffffffffffffffffffffffffffffffffff82169050919050565b60006200019d8262000170565b9050919050565b6000620001b18262000190565b9050919050565b620001c381620001a4565b8114620001cf57600080fd5b50565b600081519050620001e381620001b8565b92915050565b6000602082840312156200020257620002016200016b565b5b60006200021284828501620001d2565b91505092915050565b6117f0806200022b6000396000f3fe608060405234801561001057600080fd5b50600436106100a95760003560e01c80638da5cb5b116100715780638da5cb5b1461016657806396074e7014610184578063a9610655146101b4578063b6b55f25146101e4578063c43a0ba114610214578063f2fde38b14610244576100a9565b8063234fe113146100ae5780634e71d92d146100de5780635312ea8e146100fc57806370a082311461012c578063715018a61461015c575b600080fd5b6100c860048036038101906100c39190610dc8565b610260565b6040516100d59190610e23565b60405180910390f35b6100e661042f565b6040516100f39190610e23565b60405180910390f35b61011660048036038101906101119190610e3e565b61056d565b6040516101239190610e23565b60405180910390f35b61014660048036038101906101419190610e6b565b610695565b6040516101539190610ea7565b60405180910390f35b6101646106de565b005b61016e610766565b60405161017b9190610ed1565b60405180910390f35b61019e60048036038101906101999190610dc8565b61078f565b6040516101ab9190610e23565b60405180910390f35b6101ce60048036038101906101c99190611108565b6108dc565b6040516101db9190610e23565b60405180910390f35b6101fe60048036038101906101f99190610e3e565b610a07565b60405161020b9190610e23565b60405180910390f35b61022e600480360381019061022991906111ac565b610b38565b60405161023b9190610e23565b60405180910390f35b61025e60048036038101906102599190610e6b565b610b5d565b005b600061026a610c54565b73ffffffffffffffffffffffffffffffffffffffff16610288610766565b73ffffffffffffffffffffffffffffffffffffffff16146102de576040517f08c379a00000000000000000000000000000000000000000000000000000000081526004016102d590611236565b60405180910390fd5b600073ffffffffffffffffffffffffffffffffffffffff168373ffffffffffffffffffffffffffffffffffffffff160361034d576040517f08c379a0000000000000000000000000000000000000000000000000000000008152600401610344906112c8565b60405180910390fd5b81600260008573ffffffffffffffffffffffffffffffffffffffff1673ffffffffffffffffffffffffffffffffffffffff1681526020019081526020016000205410156103cf576040517f08c379a00000000000000000000000000000000000000000000000000000000081526004016103c69061135a565b60405180910390fd5b81600260008573ffffffffffffffffffffffffffffffffffffffff1673ffffffffffffffffffffffffffffffffffffffff168152602001908152602001600020600082825461041e91906113a9565b925050819055506001905092915050565b6000801515600160149054906101000a900460ff16151514610486576040517f08c379a000000000000000000000000000000000000000000000000000000000815260040161047d9061144f565b60405180910390fd5b600160009054906101000a900473ffffffffffffffffffffffffffffffffffffffff1673ffffffffffffffffffffffffffffffffffffffff1663a9059cbb33600260003373ffffffffffffffffffffffffffffffffffffffff1673ffffffffffffffffffffffffffffffffffffffff168152602001908152602001600020546040518363ffffffff1660e01b815260040161052292919061146f565b6020604051808303816000875af1158015610541573d6000803e3d6000fd5b505050506040513d601f19601f8201168201806040525081019061056591906114ad565b506001905090565b6000610577610c54565b73ffffffffffffffffffffffffffffffffffffffff16610595610766565b73ffffffffffffffffffffffffffffffffffffffff16146105eb576040517f08c379a00000000000000000000000000000000000000000000000000000000081526004016105e290611236565b60405180910390fd5b600160009054906101000a900473ffffffffffffffffffffffffffffffffffffffff1673ffffffffffffffffffffffffffffffffffffffff1663a9059cbb33846040518363ffffffff1660e01b815260040161064892919061146f565b6020604051808303816000875af1158015610667573d6000803e3d6000fd5b505050506040513d601f19601f8201168201806040525081019061068b91906114ad565b5060019050919050565b6000600260008373ffffffffffffffffffffffffffffffffffffffff1673ffffffffffffffffffffffffffffffffffffffff168152602001908152602001600020549050919050565b6106e6610c54565b73ffffffffffffffffffffffffffffffffffffffff16610704610766565b73ffffffffffffffffffffffffffffffffffffffff161461075a576040517f08c379a000000000000000000000000000000000000000000000000000000000815260040161075190611236565b60405180910390fd5b6107646000610c5c565b565b60008060009054906101000a900473ffffffffffffffffffffffffffffffffffffffff16905090565b6000610799610c54565b73ffffffffffffffffffffffffffffffffffffffff166107b7610766565b73ffffffffffffffffffffffffffffffffffffffff161461080d576040517f08c379a000000000000000000000000000000000000000000000000000000000815260040161080490611236565b60405180910390fd5b600073ffffffffffffffffffffffffffffffffffffffff168373ffffffffffffffffffffffffffffffffffffffff160361087c576040517f08c379a00000000000000000000000000000000000000000000000000000000081526004016108739061154c565b60405180910390fd5b81600260008573ffffffffffffffffffffffffffffffffffffffff1673ffffffffffffffffffffffffffffffffffffffff16815260200190815260200160002060008282546108cb919061156c565b925050819055506001905092915050565b60006108e6610c54565b73ffffffffffffffffffffffffffffffffffffffff16610904610766565b73ffffffffffffffffffffffffffffffffffffffff161461095a576040517f08c379a000000000000000000000000000000000000000000000000000000000815260040161095190611236565b60405180910390fd5b815183511461099e576040517f08c379a00000000000000000000000000000000000000000000000000000000081526004016109959061165a565b60405180910390fd5b60005b83518110156109fc576109e88482815181106109c0576109bf61167a565b5b60200260200101518483815181106109db576109da61167a565b5b602002602001015161078f565b5080806109f4906116a9565b9150506109a1565b506001905092915050565b6000610a11610c54565b73ffffffffffffffffffffffffffffffffffffffff16610a2f610766565b73ffffffffffffffffffffffffffffffffffffffff1614610a85576040517f08c379a0000000000000000000000000000000000000000000000000000000008152600401610a7c90611236565b60405180910390fd5b600160009054906101000a900473ffffffffffffffffffffffffffffffffffffffff1673ffffffffffffffffffffffffffffffffffffffff166323b872dd610acb610c54565b30856040518463ffffffff1660e01b8152600401610aeb939291906116f1565b6020604051808303816000875af1158015610b0a573d6000803e3d6000fd5b505050506040513d601f19601f82011682018060405250810190610b2e91906114ad565b5060019050919050565b600081600160146101000a81548160ff02191690831515021790555060019050919050565b610b65610c54565b73ffffffffffffffffffffffffffffffffffffffff16610b83610766565b73ffffffffffffffffffffffffffffffffffffffff1614610bd9576040517f08c379a0000000000000000000000000000000000000000000000000000000008152600401610bd090611236565b60405180910390fd5b600073ffffffffffffffffffffffffffffffffffffffff168173ffffffffffffffffffffffffffffffffffffffff1603610c48576040517f08c379a0000000000000000000000000000000000000000000000000000000008152600401610c3f9061179a565b60405180910390fd5b610c5181610c5c565b50565b600033905090565b60008060009054906101000a900473ffffffffffffffffffffffffffffffffffffffff169050816000806101000a81548173ffffffffffffffffffffffffffffffffffffffff021916908373ffffffffffffffffffffffffffffffffffffffff1602179055508173ffffffffffffffffffffffffffffffffffffffff168173ffffffffffffffffffffffffffffffffffffffff167f8be0079c531659141344cd1fd0a4f28419497f9722a3daafe3b4186f6b6457e060405160405180910390a35050565b6000604051905090565b600080fd5b600080fd5b600073ffffffffffffffffffffffffffffffffffffffff82169050919050565b6000610d5f82610d34565b9050919050565b610d6f81610d54565b8114610d7a57600080fd5b50565b600081359050610d8c81610d66565b92915050565b6000819050919050565b610da581610d92565b8114610db057600080fd5b50565b600081359050610dc281610d9c565b92915050565b60008060408385031215610ddf57610dde610d2a565b5b6000610ded85828601610d7d565b9250506020610dfe85828601610db3565b9150509250929050565b60008115159050919050565b610e1d81610e08565b82525050565b6000602082019050610e386000830184610e14565b92915050565b600060208284031215610e5457610e53610d2a565b5b6000610e6284828501610db3565b91505092915050565b600060208284031215610e8157610e80610d2a565b5b6000610e8f84828501610d7d565b91505092915050565b610ea181610d92565b82525050565b6000602082019050610ebc6000830184610e98565b92915050565b610ecb81610d54565b82525050565b6000602082019050610ee66000830184610ec2565b92915050565b600080fd5b6000601f19601f8301169050919050565b7f4e487b7100000000000000000000000000000000000000000000000000000000600052604160045260246000fd5b610f3a82610ef1565b810181811067ffffffffffffffff82111715610f5957610f58610f02565b5b80604052505050565b6000610f6c610d20565b9050610f788282610f31565b919050565b600067ffffffffffffffff821115610f9857610f97610f02565b5b602082029050602081019050919050565b600080fd5b6000610fc1610fbc84610f7d565b610f62565b90508083825260208201905060208402830185811115610fe457610fe3610fa9565b5b835b8181101561100d5780610ff98882610d7d565b845260208401935050602081019050610fe6565b5050509392505050565b600082601f83011261102c5761102b610eec565b5b813561103c848260208601610fae565b91505092915050565b600067ffffffffffffffff8211156110605761105f610f02565b5b602082029050602081019050919050565b600061108461107f84611045565b610f62565b905080838252602082019050602084028301858111156110a7576110a6610fa9565b5b835b818110156110d057806110bc8882610db3565b8452602084019350506020810190506110a9565b5050509392505050565b600082601f8301126110ef576110ee610eec565b5b81356110ff848260208601611071565b91505092915050565b6000806040838503121561111f5761111e610d2a565b5b600083013567ffffffffffffffff81111561113d5761113c610d2f565b5b61114985828601611017565b925050602083013567ffffffffffffffff81111561116a57611169610d2f565b5b611176858286016110da565b9150509250929050565b61118981610e08565b811461119457600080fd5b50565b6000813590506111a681611180565b92915050565b6000602082840312156111c2576111c1610d2a565b5b60006111d084828501611197565b91505092915050565b600082825260208201905092915050565b7f4f776e61626c653a2063616c6c6572206973206e6f7420746865206f776e6572600082015250565b60006112206020836111d9565b915061122b826111ea565b602082019050919050565b6000602082019050818103600083015261124f81611213565b9050919050565b7f52657761726420616d6f756e74207265647563656420666f72207a65726f206160008201527f6464726573730000000000000000000000000000000000000000000000000000602082015250565b60006112b26026836111d9565b91506112bd82611256565b604082019050919050565b600060208201905081810360008301526112e1816112a5565b9050919050565b7f446563726561736520616d6f756e74206f66207265776172647320657863656560008201527f64732062616c616e636500000000000000000000000000000000000000000000602082015250565b6000611344602a836111d9565b915061134f826112e8565b604082019050919050565b6000602082019050818103600083015261137381611337565b9050919050565b7f4e487b7100000000000000000000000000000000000000000000000000000000600052601160045260246000fd5b60006113b482610d92565b91506113bf83610d92565b9250828210156113d2576113d161137a565b5b828203905092915050565b7f5265776172647320666f722062656e6566696369617269657320686173206c6f60008201527f636b656400000000000000000000000000000000000000000000000000000000602082015250565b60006114396024836111d9565b9150611444826113dd565b604082019050919050565b600060208201905081810360008301526114688161142c565b9050919050565b60006040820190506114846000830185610ec2565b6114916020830184610e98565b9392505050565b6000815190506114a781611180565b92915050565b6000602082840312156114c3576114c2610d2a565b5b60006114d184828501611498565b91505092915050565b7f52657761726420616d6f756e7420696e6372656173656420666f72207a65726f60008201527f2061646472657373000000000000000000000000000000000000000000000000602082015250565b60006115366028836111d9565b9150611541826114da565b604082019050919050565b6000602082019050818103600083015261156581611529565b9050919050565b600061157782610d92565b915061158283610d92565b9250827fffffffffffffffffffffffffffffffffffffffffffffffffffffffffffffffff038211156115b7576115b661137a565b5b828201905092915050565b7f546865206e756d626572206f66206974656d7320696e2074686520617272617960008201527f206f662062656e6566696369617269657320616e642074686520616d6f756e7460208201527f73206d757374206d617463680000000000000000000000000000000000000000604082015250565b6000611644604c836111d9565b915061164f826115c2565b606082019050919050565b6000602082019050818103600083015261167381611637565b9050919050565b7f4e487b7100000000000000000000000000000000000000000000000000000000600052603260045260246000fd5b60006116b482610d92565b91507fffffffffffffffffffffffffffffffffffffffffffffffffffffffffffffffff82036116e6576116e561137a565b5b600182019050919050565b60006060820190506117066000830186610ec2565b6117136020830185610ec2565b6117206040830184610e98565b949350505050565b7f4f776e61626c653a206e6577206f776e657220697320746865207a65726f206160008201527f6464726573730000000000000000000000000000000000000000000000000000602082015250565b60006117846026836111d9565b915061178f82611728565b604082019050919050565b600060208201905081810360008301526117b381611777565b905091905056fea2646970667358221220930155f59e4f5eb72a499872eb475d3cdbdb60578929c6edaf52e167a54a800564736f6c634300080e0033",
  "immutableReferences": {},
  "source": "// SPDX-License-Identifier: MIT\r\npragma solidity ^0.8.9;\r\n\r\nimport \"./IDistributionContract.sol\";\r\n// import \"@openzeppelin/contracts/token/ERC20/IERC20.sol\";\r\n// import \"@openzeppelin/contracts/access/Ownable.sol\";\r\nimport \"./TevaToken.sol\";\r\n\r\n\r\ncontract DistributionContract is IDistributionContract, Ownable {\r\n\r\n    IERC20 private _token;\r\n    bool private _rewardsIsLocked;\r\n\r\n    mapping(address => uint256) private _balances;\r\n\r\n    constructor (IERC20 token) {\r\n        _token = token;\r\n    }\r\n\r\n    //Should transfer tokens from owner to distribution contract\r\n    //Can be called only by the owner\r\n    function deposit(uint256 amount) public onlyOwner returns (bool) {\r\n        _token.transferFrom(_msgSender(), address(this), amount);\r\n        return true;\r\n    }\r\n\r\n    //Rewards should be increased for the beneficiaries.\r\n    //Can be called only by the owner\r\n    function addBeneficiaries(address[] memory beneficiaries, uint256[] memory amounts) onlyOwner public returns (bool) {\r\n        require(beneficiaries.length == amounts.length, \"The number of items in the array of beneficiaries and the amounts must match\");\r\n\r\n        for(uint256 i = 0; i < beneficiaries.length; i++){\r\n            addBeneficiary(beneficiaries[i], amounts[i]);\r\n        }\r\n        return true;\r\n    }\r\n\r\n    //Rewards should be increased for the beneficiary.\r\n    //Can be called only by the owner\r\n    function addBeneficiary(address beneficiary, uint256 amount) public onlyOwner returns (bool) {\r\n        require(beneficiary != address(0), \"Reward amount increased for zero address\");\r\n        _balances[beneficiary]  += amount;\r\n        return true;\r\n    }\r\n\r\n    //Should decrease the amount of rewards for a beneficiary.\r\n    //Can be called only by the owner\r\n    function decreaseReward(address beneficiary, uint256 amount) public onlyOwner returns (bool){\r\n        require(beneficiary != address(0), \"Reward amount reduced for zero address\");\r\n        require(_balances[beneficiary] >= amount, \"Decrease amount of rewards exceeds balance\");\r\n        _balances[beneficiary]  -= amount;\r\n        return true;\r\n    }\r\n\r\n    //Should transfer amount of reward tokens back to the owner.\r\n    //Can be called only by the owner\r\n    function emergencyWithdraw(uint256 amount) public onlyOwner returns (bool) {\r\n        _token.transfer(msg.sender, amount);\r\n        return true;\r\n    }\r\n\r\n    //Should lock/unlock rewards for beneficiaries?\r\n    //Can be called only by the owner\r\n    function lockRewards(bool lock) public returns (bool) {\r\n        _rewardsIsLocked = lock;\r\n        return true;\r\n    }\r\n\r\n    //Should transfer reward tokens to beneficiary. Without parameters.\r\n    function claim() public returns (bool) {\r\n        require(_rewardsIsLocked == false, \"Rewards for beneficiaries has locked\");\r\n        _token.transfer(msg.sender, _balances[msg.sender]);\r\n        return true;\r\n    }\r\n\r\n    function balanceOf(address account) public view returns (uint256) {\r\n        return _balances[account];\r\n    }\r\n}",
  "sourcePath": "C:\\Users\\12And\\Desktop\\solidity\\TruffleCustomERC20Token\\contracts\\DistributionContract.sol",
  "compiler": {
    "name": "solc",
    "version": "0.8.14+commit.80d49f37.Emscripten.clang"
  },
  "schemaVersion": "3.4.7",
  "updatedAt": "2022-06-08T11:19:29.353Z",
  "devdoc": {
    "kind": "dev",
    "methods": {
      "owner()": {
        "details": "Returns the address of the current owner."
      },
      "renounceOwnership()": {
        "details": "Leaves the contract without owner. It will not be possible to call `onlyOwner` functions anymore. Can only be called by the current owner. NOTE: Renouncing ownership will leave the contract without an owner, thereby removing any functionality that is only available to the owner."
      },
      "transferOwnership(address)": {
        "details": "Transfers ownership of the contract to a new account (`newOwner`). Can only be called by the current owner."
      }
    },
    "version": 1
  },
  "userdoc": {
    "kind": "user",
    "methods": {},
    "version": 1
  }
}