{
  "contractName": "DistributionContract",
  "abi": [
    {
      "inputs": [
        {
          "internalType": "contract IERC20",
          "name": "token",
          "type": "address"
        }
      ],
      "stateMutability": "nonpayable",
      "type": "constructor"
    },
    {
      "anonymous": false,
      "inputs": [
        {
          "indexed": false,
          "internalType": "address",
          "name": "beneficiary",
          "type": "address"
        },
        {
          "indexed": false,
          "internalType": "uint256",
          "name": "balanceBefore",
          "type": "uint256"
        },
        {
          "indexed": false,
          "internalType": "uint256",
          "name": "balanceAfter",
          "type": "uint256"
        }
      ],
      "name": "BeneficiaryBalanceChanged",
      "type": "event"
    },
    {
      "anonymous": false,
      "inputs": [
        {
          "indexed": false,
          "internalType": "address",
          "name": "from",
          "type": "address"
        },
        {
          "indexed": false,
          "internalType": "uint256",
          "name": "amount",
          "type": "uint256"
        }
      ],
      "name": "Deposit",
      "type": "event"
    },
    {
      "anonymous": false,
      "inputs": [
        {
          "indexed": false,
          "internalType": "bool",
          "name": "rewardsIsLocked",
          "type": "bool"
        }
      ],
      "name": "LockRewards",
      "type": "event"
    },
    {
      "anonymous": false,
      "inputs": [
        {
          "indexed": true,
          "internalType": "address",
          "name": "previousOwner",
          "type": "address"
        },
        {
          "indexed": true,
          "internalType": "address",
          "name": "newOwner",
          "type": "address"
        }
      ],
      "name": "OwnershipTransferred",
      "type": "event"
    },
    {
      "anonymous": false,
      "inputs": [
        {
          "indexed": false,
          "internalType": "uint256",
          "name": "totalSupplyBefore",
          "type": "uint256"
        },
        {
          "indexed": false,
          "internalType": "uint256",
          "name": "TotalSuppleAfter",
          "type": "uint256"
        }
      ],
      "name": "TotalSupplyChanged",
      "type": "event"
    },
    {
      "inputs": [],
      "name": "_rewardsIsLocked",
      "outputs": [
        {
          "internalType": "bool",
          "name": "",
          "type": "bool"
        }
      ],
      "stateMutability": "view",
      "type": "function"
    },
    {
      "inputs": [],
      "name": "_token",
      "outputs": [
        {
          "internalType": "contract IERC20",
          "name": "",
          "type": "address"
        }
      ],
      "stateMutability": "view",
      "type": "function"
    },
    {
      "inputs": [],
      "name": "_totalSupply",
      "outputs": [
        {
          "internalType": "uint256",
          "name": "",
          "type": "uint256"
        }
      ],
      "stateMutability": "view",
      "type": "function"
    },
    {
      "inputs": [],
      "name": "owner",
      "outputs": [
        {
          "internalType": "address",
          "name": "",
          "type": "address"
        }
      ],
      "stateMutability": "view",
      "type": "function"
    },
    {
      "inputs": [],
      "name": "renounceOwnership",
      "outputs": [],
      "stateMutability": "nonpayable",
      "type": "function"
    },
    {
      "inputs": [
        {
          "internalType": "address",
          "name": "newOwner",
          "type": "address"
        }
      ],
      "name": "transferOwnership",
      "outputs": [],
      "stateMutability": "nonpayable",
      "type": "function"
    },
    {
      "inputs": [
        {
          "internalType": "uint256",
          "name": "amount",
          "type": "uint256"
        }
      ],
      "name": "deposit",
      "outputs": [],
      "stateMutability": "nonpayable",
      "type": "function"
    },
    {
      "inputs": [
        {
          "internalType": "address[]",
          "name": "beneficiaries",
          "type": "address[]"
        },
        {
          "internalType": "uint256[]",
          "name": "amounts",
          "type": "uint256[]"
        }
      ],
      "name": "addBeneficiaries",
      "outputs": [],
      "stateMutability": "nonpayable",
      "type": "function"
    },
    {
      "inputs": [
        {
          "internalType": "address",
          "name": "beneficiary",
          "type": "address"
        },
        {
          "internalType": "uint256",
          "name": "amount",
          "type": "uint256"
        }
      ],
      "name": "addBeneficiary",
      "outputs": [],
      "stateMutability": "nonpayable",
      "type": "function"
    },
    {
      "inputs": [
        {
          "internalType": "address",
          "name": "beneficiary",
          "type": "address"
        },
        {
          "internalType": "uint256",
          "name": "amount",
          "type": "uint256"
        }
      ],
      "name": "decreaseReward",
      "outputs": [],
      "stateMutability": "nonpayable",
      "type": "function"
    },
    {
      "inputs": [
        {
          "internalType": "uint256",
          "name": "amount",
          "type": "uint256"
        }
      ],
      "name": "emergencyWithdraw",
      "outputs": [],
      "stateMutability": "nonpayable",
      "type": "function"
    },
    {
      "inputs": [
        {
          "internalType": "bool",
          "name": "lock",
          "type": "bool"
        }
      ],
      "name": "lockRewards",
      "outputs": [],
      "stateMutability": "nonpayable",
      "type": "function"
    },
    {
      "inputs": [],
      "name": "claim",
      "outputs": [],
      "stateMutability": "nonpayable",
      "type": "function"
    },
    {
      "inputs": [
        {
          "internalType": "address",
          "name": "account",
          "type": "address"
        }
      ],
      "name": "balanceOf",
      "outputs": [
        {
          "internalType": "uint256",
          "name": "",
          "type": "uint256"
        }
      ],
      "stateMutability": "view",
      "type": "function"
    }
  ],
  "bytecode": "0x60806040526040518060400160405280601e81526020017f546865207472616e73616374696f6e20616d6f756e74206973207a65726f000081525060019080519060200190620000519291906200022b565b503480156200005f57600080fd5b506040516200298638038062002986833981810160405281019062000085919062000359565b620000a5620000996200015f60201b60201c565b6200016760201b60201c565b600073ffffffffffffffffffffffffffffffffffffffff168173ffffffffffffffffffffffffffffffffffffffff160362000117576040517f08c379a00000000000000000000000000000000000000000000000000000000081526004016200010e9062000412565b60405180910390fd5b80600260006101000a81548173ffffffffffffffffffffffffffffffffffffffff021916908373ffffffffffffffffffffffffffffffffffffffff1602179055505062000498565b600033905090565b60008060009054906101000a900473ffffffffffffffffffffffffffffffffffffffff169050816000806101000a81548173ffffffffffffffffffffffffffffffffffffffff021916908373ffffffffffffffffffffffffffffffffffffffff1602179055508173ffffffffffffffffffffffffffffffffffffffff168173ffffffffffffffffffffffffffffffffffffffff167f8be0079c531659141344cd1fd0a4f28419497f9722a3daafe3b4186f6b6457e060405160405180910390a35050565b828054620002399062000463565b90600052602060002090601f0160209004810192826200025d5760008555620002a9565b82601f106200027857805160ff1916838001178555620002a9565b82800160010185558215620002a9579182015b82811115620002a85782518255916020019190600101906200028b565b5b509050620002b89190620002bc565b5090565b5b80821115620002d7576000816000905550600101620002bd565b5090565b600080fd5b600073ffffffffffffffffffffffffffffffffffffffff82169050919050565b60006200030d82620002e0565b9050919050565b6000620003218262000300565b9050919050565b620003338162000314565b81146200033f57600080fd5b50565b600081519050620003538162000328565b92915050565b600060208284031215620003725762000371620002db565b5b6000620003828482850162000342565b91505092915050565b600082825260208201905092915050565b7f5468652061646472657373206f662074686520636f6e74726163742073686f7560008201527f6c64206e6f74206265207a65726f000000000000000000000000000000000000602082015250565b6000620003fa602e836200038b565b915062000407826200039c565b604082019050919050565b600060208201905081810360008301526200042d81620003eb565b9050919050565b7f4e487b7100000000000000000000000000000000000000000000000000000000600052602260045260246000fd5b600060028204905060018216806200047c57607f821691505b60208210810362000492576200049162000434565b5b50919050565b6124de80620004a86000396000f3fe608060405234801561001057600080fd5b50600436106100ea5760003560e01c80638da5cb5b1161008c578063b6b55f2511610066578063b6b55f25146101fd578063c43a0ba114610219578063ecd0c0c314610235578063f2fde38b14610253576100ea565b80638da5cb5b146101a757806396074e70146101c5578063a9610655146101e1576100ea565b80634e71d92d116100c85780634e71d92d146101475780635312ea8e1461015157806370a082311461016d578063715018a61461019d576100ea565b80630e4afa3a146100ef578063234fe1131461010d5780633eaaf86b14610129575b600080fd5b6100f761026f565b60405161010491906115de565b60405180910390f35b61012760048036038101906101229190611697565b610282565b005b610131610550565b60405161013e91906116e6565b60405180910390f35b61014f610556565b005b61016b60048036038101906101669190611701565b61079e565b005b6101876004803603810190610182919061172e565b61093a565b60405161019491906116e6565b60405180910390f35b6101a5610983565b005b6101af610a0b565b6040516101bc919061176a565b60405180910390f35b6101df60048036038101906101da9190611697565b610a34565b005b6101fb60048036038101906101f69190611840565b610c80565b005b61021760048036038101906102129190611701565b610db6565b005b610233600480360381019061022e91906118ed565b610f6f565b005b61023d61104e565b60405161024a9190611979565b60405180910390f35b61026d6004803603810190610268919061172e565b611074565b005b600260149054906101000a900460ff1681565b61028a61116b565b73ffffffffffffffffffffffffffffffffffffffff166102a8610a0b565b73ffffffffffffffffffffffffffffffffffffffff16146102fe576040517f08c379a00000000000000000000000000000000000000000000000000000000081526004016102f5906119f1565b60405180910390fd5b600073ffffffffffffffffffffffffffffffffffffffff168273ffffffffffffffffffffffffffffffffffffffff160361036d576040517f08c379a000000000000000000000000000000000000000000000000000000000815260040161036490611a83565b60405180910390fd5b600081116001906103b4576040517f08c379a00000000000000000000000000000000000000000000000000000000081526004016103ab9190611b98565b60405180910390fd5b5080600460008473ffffffffffffffffffffffffffffffffffffffff1673ffffffffffffffffffffffffffffffffffffffff168152602001908152602001600020541015610437576040517f08c379a000000000000000000000000000000000000000000000000000000000815260040161042e90611c2c565b60405180910390fd5b6000600460008473ffffffffffffffffffffffffffffffffffffffff1673ffffffffffffffffffffffffffffffffffffffff16815260200190815260200160002054905081600460008573ffffffffffffffffffffffffffffffffffffffff1673ffffffffffffffffffffffffffffffffffffffff16815260200190815260200160002060008282546104ca9190611c7b565b925050819055507ff96b99a01b4b10f759d52fe7d0965b06ab7bfea22adac96b48ca34779969db148382600460008773ffffffffffffffffffffffffffffffffffffffff1673ffffffffffffffffffffffffffffffffffffffff1681526020019081526020016000205460405161054393929190611caf565b60405180910390a1505050565b60035481565b60001515600260149054906101000a900460ff161515146105ac576040517f08c379a00000000000000000000000000000000000000000000000000000000081526004016105a390611d58565b60405180910390fd5b600460003373ffffffffffffffffffffffffffffffffffffffff1673ffffffffffffffffffffffffffffffffffffffff168152602001908152602001600020546003541015610630576040517f08c379a000000000000000000000000000000000000000000000000000000000815260040161062790611dea565b60405180910390fd5b60006003549050600460003373ffffffffffffffffffffffffffffffffffffffff1673ffffffffffffffffffffffffffffffffffffffff16815260200190815260200160002054600360008282546106889190611c7b565b925050819055506000600460003373ffffffffffffffffffffffffffffffffffffffff1673ffffffffffffffffffffffffffffffffffffffff1681526020019081526020016000208190555061076033600460003373ffffffffffffffffffffffffffffffffffffffff1673ffffffffffffffffffffffffffffffffffffffff16815260200190815260200160002054600260009054906101000a900473ffffffffffffffffffffffffffffffffffffffff1673ffffffffffffffffffffffffffffffffffffffff166111739092919063ffffffff16565b7fc16e0656e8c02e8cf4339f9e9d1c69f3ee797425ca30c7fc6692bbdaab52920381600354604051610793929190611e0a565b60405180910390a150565b6107a661116b565b73ffffffffffffffffffffffffffffffffffffffff166107c4610a0b565b73ffffffffffffffffffffffffffffffffffffffff161461081a576040517f08c379a0000000000000000000000000000000000000000000000000000000008152600401610811906119f1565b60405180910390fd5b60008111600190610861576040517f08c379a00000000000000000000000000000000000000000000000000000000081526004016108589190611b98565b60405180910390fd5b508060035410156108a7576040517f08c379a000000000000000000000000000000000000000000000000000000000815260040161089e90611ea5565b60405180910390fd5b600060035490506108fb3383600260009054906101000a900473ffffffffffffffffffffffffffffffffffffffff1673ffffffffffffffffffffffffffffffffffffffff166111739092919063ffffffff16565b7fc16e0656e8c02e8cf4339f9e9d1c69f3ee797425ca30c7fc6692bbdaab5292038160035460405161092e929190611e0a565b60405180910390a15050565b6000600460008373ffffffffffffffffffffffffffffffffffffffff1673ffffffffffffffffffffffffffffffffffffffff168152602001908152602001600020549050919050565b61098b61116b565b73ffffffffffffffffffffffffffffffffffffffff166109a9610a0b565b73ffffffffffffffffffffffffffffffffffffffff16146109ff576040517f08c379a00000000000000000000000000000000000000000000000000000000081526004016109f6906119f1565b60405180910390fd5b610a0960006111f9565b565b60008060009054906101000a900473ffffffffffffffffffffffffffffffffffffffff16905090565b610a3c61116b565b73ffffffffffffffffffffffffffffffffffffffff16610a5a610a0b565b73ffffffffffffffffffffffffffffffffffffffff1614610ab0576040517f08c379a0000000000000000000000000000000000000000000000000000000008152600401610aa7906119f1565b60405180910390fd5b600073ffffffffffffffffffffffffffffffffffffffff168273ffffffffffffffffffffffffffffffffffffffff1603610b1f576040517f08c379a0000000000000000000000000000000000000000000000000000000008152600401610b1690611f37565b60405180910390fd5b60008111600190610b66576040517f08c379a0000000000000000000000000000000000000000000000000000000008152600401610b5d9190611b98565b60405180910390fd5b506000600460008473ffffffffffffffffffffffffffffffffffffffff1673ffffffffffffffffffffffffffffffffffffffff16815260200190815260200160002054905081600460008573ffffffffffffffffffffffffffffffffffffffff1673ffffffffffffffffffffffffffffffffffffffff1681526020019081526020016000206000828254610bfa9190611f57565b925050819055507ff96b99a01b4b10f759d52fe7d0965b06ab7bfea22adac96b48ca34779969db148382600460008773ffffffffffffffffffffffffffffffffffffffff1673ffffffffffffffffffffffffffffffffffffffff16815260200190815260200160002054604051610c7393929190611caf565b60405180910390a1505050565b610c8861116b565b73ffffffffffffffffffffffffffffffffffffffff16610ca6610a0b565b73ffffffffffffffffffffffffffffffffffffffff1614610cfc576040517f08c379a0000000000000000000000000000000000000000000000000000000008152600401610cf3906119f1565b60405180910390fd5b818190508484905014610d44576040517f08c379a0000000000000000000000000000000000000000000000000000000008152600401610d3b90612045565b60405180910390fd5b60005b84849050811015610daf57610d9c858583818110610d6857610d67612065565b5b9050602002016020810190610d7d919061172e565b848484818110610d9057610d8f612065565b5b90506020020135610a34565b8080610da790612094565b915050610d47565b5050505050565b610dbe61116b565b73ffffffffffffffffffffffffffffffffffffffff16610ddc610a0b565b73ffffffffffffffffffffffffffffffffffffffff1614610e32576040517f08c379a0000000000000000000000000000000000000000000000000000000008152600401610e29906119f1565b60405180910390fd5b60008111600190610e79576040517f08c379a0000000000000000000000000000000000000000000000000000000008152600401610e709190611b98565b60405180910390fd5b50600060035490508160036000828254610e939190611f57565b92505081905550610ef0610ea561116b565b3084600260009054906101000a900473ffffffffffffffffffffffffffffffffffffffff1673ffffffffffffffffffffffffffffffffffffffff166112bd909392919063ffffffff16565b7fe1fffcc4923d04b559f4d29a8bfc6cda04eb5b0d3c460751c2402c5c5cc9109c610f1961116b565b83604051610f289291906120dc565b60405180910390a17fc16e0656e8c02e8cf4339f9e9d1c69f3ee797425ca30c7fc6692bbdaab52920381600354604051610f63929190611e0a565b60405180910390a15050565b610f7761116b565b73ffffffffffffffffffffffffffffffffffffffff16610f95610a0b565b73ffffffffffffffffffffffffffffffffffffffff1614610feb576040517f08c379a0000000000000000000000000000000000000000000000000000000008152600401610fe2906119f1565b60405180910390fd5b80600260146101000a81548160ff0219169083151502179055507fd1ab184dfc7335db1582d8a5407ea1342a99a22e3221db39f2861181afdca53d600260149054906101000a900460ff1660405161104391906115de565b60405180910390a150565b600260009054906101000a900473ffffffffffffffffffffffffffffffffffffffff1681565b61107c61116b565b73ffffffffffffffffffffffffffffffffffffffff1661109a610a0b565b73ffffffffffffffffffffffffffffffffffffffff16146110f0576040517f08c379a00000000000000000000000000000000000000000000000000000000081526004016110e7906119f1565b60405180910390fd5b600073ffffffffffffffffffffffffffffffffffffffff168173ffffffffffffffffffffffffffffffffffffffff160361115f576040517f08c379a000000000000000000000000000000000000000000000000000000000815260040161115690612177565b60405180910390fd5b611168816111f9565b50565b600033905090565b6111f48363a9059cbb60e01b84846040516024016111929291906120dc565b604051602081830303815290604052907bffffffffffffffffffffffffffffffffffffffffffffffffffffffff19166020820180517bffffffffffffffffffffffffffffffffffffffffffffffffffffffff8381831617835250505050611346565b505050565b60008060009054906101000a900473ffffffffffffffffffffffffffffffffffffffff169050816000806101000a81548173ffffffffffffffffffffffffffffffffffffffff021916908373ffffffffffffffffffffffffffffffffffffffff1602179055508173ffffffffffffffffffffffffffffffffffffffff168173ffffffffffffffffffffffffffffffffffffffff167f8be0079c531659141344cd1fd0a4f28419497f9722a3daafe3b4186f6b6457e060405160405180910390a35050565b611340846323b872dd60e01b8585856040516024016112de93929190612197565b604051602081830303815290604052907bffffffffffffffffffffffffffffffffffffffffffffffffffffffff19166020820180517bffffffffffffffffffffffffffffffffffffffffffffffffffffffff8381831617835250505050611346565b50505050565b60006113a8826040518060400160405280602081526020017f5361666545524332303a206c6f772d6c6576656c2063616c6c206661696c65648152508573ffffffffffffffffffffffffffffffffffffffff1661140d9092919063ffffffff16565b905060008151111561140857808060200190518101906113c891906121e3565b611407576040517f08c379a00000000000000000000000000000000000000000000000000000000081526004016113fe90612282565b60405180910390fd5b5b505050565b606061141c8484600085611425565b90509392505050565b60608247101561146a576040517f08c379a000000000000000000000000000000000000000000000000000000000815260040161146190612314565b60405180910390fd5b61147385611539565b6114b2576040517f08c379a00000000000000000000000000000000000000000000000000000000081526004016114a990612380565b60405180910390fd5b6000808673ffffffffffffffffffffffffffffffffffffffff1685876040516114db919061241a565b60006040518083038185875af1925050503d8060008114611518576040519150601f19603f3d011682016040523d82523d6000602084013e61151d565b606091505b509150915061152d82828661155c565b92505050949350505050565b6000808273ffffffffffffffffffffffffffffffffffffffff163b119050919050565b6060831561156c578290506115bc565b60008351111561157f5782518084602001fd5b816040517f08c379a00000000000000000000000000000000000000000000000000000000081526004016115b39190612486565b60405180910390fd5b9392505050565b60008115159050919050565b6115d8816115c3565b82525050565b60006020820190506115f360008301846115cf565b92915050565b600080fd5b600080fd5b600073ffffffffffffffffffffffffffffffffffffffff82169050919050565b600061162e82611603565b9050919050565b61163e81611623565b811461164957600080fd5b50565b60008135905061165b81611635565b92915050565b6000819050919050565b61167481611661565b811461167f57600080fd5b50565b6000813590506116918161166b565b92915050565b600080604083850312156116ae576116ad6115f9565b5b60006116bc8582860161164c565b92505060206116cd85828601611682565b9150509250929050565b6116e081611661565b82525050565b60006020820190506116fb60008301846116d7565b92915050565b600060208284031215611717576117166115f9565b5b600061172584828501611682565b91505092915050565b600060208284031215611744576117436115f9565b5b60006117528482850161164c565b91505092915050565b61176481611623565b82525050565b600060208201905061177f600083018461175b565b92915050565b600080fd5b600080fd5b600080fd5b60008083601f8401126117aa576117a9611785565b5b8235905067ffffffffffffffff8111156117c7576117c661178a565b5b6020830191508360208202830111156117e3576117e261178f565b5b9250929050565b60008083601f840112611800576117ff611785565b5b8235905067ffffffffffffffff81111561181d5761181c61178a565b5b6020830191508360208202830111156118395761183861178f565b5b9250929050565b6000806000806040858703121561185a576118596115f9565b5b600085013567ffffffffffffffff811115611878576118776115fe565b5b61188487828801611794565b9450945050602085013567ffffffffffffffff8111156118a7576118a66115fe565b5b6118b3878288016117ea565b925092505092959194509250565b6118ca816115c3565b81146118d557600080fd5b50565b6000813590506118e7816118c1565b92915050565b600060208284031215611903576119026115f9565b5b6000611911848285016118d8565b91505092915050565b6000819050919050565b600061193f61193a61193584611603565b61191a565b611603565b9050919050565b600061195182611924565b9050919050565b600061196382611946565b9050919050565b61197381611958565b82525050565b600060208201905061198e600083018461196a565b92915050565b600082825260208201905092915050565b7f4f776e61626c653a2063616c6c6572206973206e6f7420746865206f776e6572600082015250565b60006119db602083611994565b91506119e6826119a5565b602082019050919050565b60006020820190508181036000830152611a0a816119ce565b9050919050565b7f52657761726420616d6f756e74207265647563656420666f72207a65726f206160008201527f6464726573730000000000000000000000000000000000000000000000000000602082015250565b6000611a6d602683611994565b9150611a7882611a11565b604082019050919050565b60006020820190508181036000830152611a9c81611a60565b9050919050565b7f4e487b7100000000000000000000000000000000000000000000000000000000600052602260045260246000fd5b60006002820490506001821680611aea57607f821691505b602082108103611afd57611afc611aa3565b5b50919050565b60008190508160005260206000209050919050565b60008154611b2581611ad2565b611b2f8186611994565b94506001821660008114611b4a5760018114611b5c57611b8f565b60ff1983168652602086019350611b8f565b611b6585611b03565b60005b83811015611b8757815481890152600182019150602081019050611b68565b808801955050505b50505092915050565b60006020820190508181036000830152611bb28184611b18565b905092915050565b7f446563726561736520616d6f756e74206f66207265776172647320657863656560008201527f64732062616c616e636500000000000000000000000000000000000000000000602082015250565b6000611c16602a83611994565b9150611c2182611bba565b604082019050919050565b60006020820190508181036000830152611c4581611c09565b9050919050565b7f4e487b7100000000000000000000000000000000000000000000000000000000600052601160045260246000fd5b6000611c8682611661565b9150611c9183611661565b925082821015611ca457611ca3611c4c565b5b828203905092915050565b6000606082019050611cc4600083018661175b565b611cd160208301856116d7565b611cde60408301846116d7565b949350505050565b7f5265776172647320666f722062656e6566696369617269657320686173206c6f60008201527f636b656400000000000000000000000000000000000000000000000000000000602082015250565b6000611d42602483611994565b9150611d4d82611ce6565b604082019050919050565b60006020820190508181036000830152611d7181611d35565b9050919050565b7f4e6f7420656e6f75676820746f6b656e7320696e2074686520636f6e7472616360008201527f7400000000000000000000000000000000000000000000000000000000000000602082015250565b6000611dd4602183611994565b9150611ddf82611d78565b604082019050919050565b60006020820190508181036000830152611e0381611dc7565b9050919050565b6000604082019050611e1f60008301856116d7565b611e2c60208301846116d7565b9392505050565b7f576974686472617720616d6f756e74206f66207265776172647320657863656560008201527f64732062616c616e636500000000000000000000000000000000000000000000602082015250565b6000611e8f602a83611994565b9150611e9a82611e33565b604082019050919050565b60006020820190508181036000830152611ebe81611e82565b9050919050565b7f52657761726420616d6f756e7420696e6372656173656420666f72207a65726f60008201527f2061646472657373000000000000000000000000000000000000000000000000602082015250565b6000611f21602883611994565b9150611f2c82611ec5565b604082019050919050565b60006020820190508181036000830152611f5081611f14565b9050919050565b6000611f6282611661565b9150611f6d83611661565b9250827fffffffffffffffffffffffffffffffffffffffffffffffffffffffffffffffff03821115611fa257611fa1611c4c565b5b828201905092915050565b7f546865206e756d626572206f66206974656d7320696e2074686520617272617960008201527f206f662062656e6566696369617269657320616e642074686520616d6f756e7460208201527f73206d757374206d617463680000000000000000000000000000000000000000604082015250565b600061202f604c83611994565b915061203a82611fad565b606082019050919050565b6000602082019050818103600083015261205e81612022565b9050919050565b7f4e487b7100000000000000000000000000000000000000000000000000000000600052603260045260246000fd5b600061209f82611661565b91507fffffffffffffffffffffffffffffffffffffffffffffffffffffffffffffffff82036120d1576120d0611c4c565b5b600182019050919050565b60006040820190506120f1600083018561175b565b6120fe60208301846116d7565b9392505050565b7f4f776e61626c653a206e6577206f776e657220697320746865207a65726f206160008201527f6464726573730000000000000000000000000000000000000000000000000000602082015250565b6000612161602683611994565b915061216c82612105565b604082019050919050565b6000602082019050818103600083015261219081612154565b9050919050565b60006060820190506121ac600083018661175b565b6121b9602083018561175b565b6121c660408301846116d7565b949350505050565b6000815190506121dd816118c1565b92915050565b6000602082840312156121f9576121f86115f9565b5b6000612207848285016121ce565b91505092915050565b7f5361666545524332303a204552433230206f7065726174696f6e20646964206e60008201527f6f74207375636365656400000000000000000000000000000000000000000000602082015250565b600061226c602a83611994565b915061227782612210565b604082019050919050565b6000602082019050818103600083015261229b8161225f565b9050919050565b7f416464726573733a20696e73756666696369656e742062616c616e636520666f60008201527f722063616c6c0000000000000000000000000000000000000000000000000000602082015250565b60006122fe602683611994565b9150612309826122a2565b604082019050919050565b6000602082019050818103600083015261232d816122f1565b9050919050565b7f416464726573733a2063616c6c20746f206e6f6e2d636f6e7472616374000000600082015250565b600061236a601d83611994565b915061237582612334565b602082019050919050565b600060208201905081810360008301526123998161235d565b9050919050565b600081519050919050565b600081905092915050565b60005b838110156123d45780820151818401526020810190506123b9565b838111156123e3576000848401525b50505050565b60006123f4826123a0565b6123fe81856123ab565b935061240e8185602086016123b6565b80840191505092915050565b600061242682846123e9565b915081905092915050565b600081519050919050565b6000601f19601f8301169050919050565b600061245882612431565b6124628185611994565b93506124728185602086016123b6565b61247b8161243c565b840191505092915050565b600060208201905081810360008301526124a0818461244d565b90509291505056fea2646970667358221220199c5afb739da5e269de136551579d1a0ac07e781b93406d2f928ce946ae778a64736f6c634300080e0033",
  "immutableReferences": {},
  "source": "// SPDX-License-Identifier: MIT\r\npragma solidity ^0.8.9;\r\n\r\nimport \"@openzeppelin/contracts/token/ERC20/ERC20.sol\";\r\nimport '@openzeppelin/contracts/token/ERC20/utils/SafeERC20.sol';\r\nimport \"@openzeppelin/contracts/access/Ownable.sol\";\r\nimport \"./IDistributionContract.sol\";\r\n\r\ncontract DistributionContract is IDistributionContract, Ownable {\r\n    using SafeERC20 for IERC20; \r\n\r\n    string ERROR_AMMOUNT_IS_ZERO = \"The transaction amount is zero\";\r\n\r\n    IERC20 public _token;\r\n    bool public _rewardsIsLocked;\r\n    uint256 public _totalSupply;\r\n\r\n    mapping(address => uint256) private _balances;\r\n\r\n    event BeneficiaryBalanceChanged(address beneficiary, uint256 balanceBefore, uint256 balanceAfter);\r\n    event TotalSupplyChanged(uint256 totalSupplyBefore, uint256 TotalSuppleAfter);\r\n    event LockRewards(bool rewardsIsLocked);\r\n    event Deposit(address from, uint256 amount);\r\n\r\n    constructor(IERC20 token) {\r\n        require(address(token) != address(0), \"The address of the contract should not be zero\");\r\n        _token = token;\r\n    }\r\n\r\n\r\n    /**\r\n     * @dev Should transfer tokens from owner to distribution contract.\r\n     * Can only be called by the current owner.\r\n     * Emits an {Approval} event\r\n     * @param amount Amount of tokens\r\n     */\r\n    function deposit(uint256 amount) external onlyOwner {\r\n        require(amount > 0, ERROR_AMMOUNT_IS_ZERO);\r\n\r\n        uint256 totalSupplyBefore = _totalSupply;\r\n        _totalSupply += amount;\r\n        _token.safeTransferFrom(_msgSender(), address(this), amount);\r\n        emit Deposit(_msgSender(), amount);\r\n        emit TotalSupplyChanged(totalSupplyBefore, _totalSupply);\r\n\r\n    }\r\n\r\n    //Rewards should be increased for the beneficiaries.\r\n    //Can be called only by the owner\r\n    function addBeneficiaries(address[] calldata beneficiaries, uint256[] calldata amounts) external onlyOwner {\r\n        require(beneficiaries.length == amounts.length, \"The number of items in the array of beneficiaries and the amounts must match\");\r\n\r\n        for (uint256 i = 0; i < beneficiaries.length; i++) {\r\n            addBeneficiary(beneficiaries[i], amounts[i]);\r\n        }\r\n    }\r\n\r\n    //Rewards should be increased for the beneficiary.\r\n    //Can be called only by the owner\r\n    function addBeneficiary(address beneficiary, uint256 amount) public onlyOwner {\r\n        require(beneficiary != address(0), \"Reward amount increased for zero address\");\r\n        require(amount > 0, ERROR_AMMOUNT_IS_ZERO);\r\n\r\n        uint256 balanceBefore = _balances[beneficiary];\r\n        _balances[beneficiary]  += amount;\r\n        emit BeneficiaryBalanceChanged(beneficiary, balanceBefore, _balances[beneficiary]);\r\n    }\r\n\r\n    //Should decrease the amount of rewards for a beneficiary.\r\n    //Can be called only by the owner\r\n    function decreaseReward(address beneficiary, uint256 amount) external onlyOwner {\r\n        require(beneficiary != address(0), \"Reward amount reduced for zero address\");\r\n        require(amount > 0, ERROR_AMMOUNT_IS_ZERO);\r\n        require(_balances[beneficiary] >= amount, \"Decrease amount of rewards exceeds balance\");\r\n\r\n        uint256 balanceBefore = _balances[beneficiary];\r\n        _balances[beneficiary]  -= amount;\r\n        emit BeneficiaryBalanceChanged(beneficiary, balanceBefore, _balances[beneficiary]);\r\n    }\r\n\r\n    //Should transfer amount of reward tokens back to the owner.\r\n    //Can be called only by the owner\r\n    function emergencyWithdraw(uint256 amount) external onlyOwner {\r\n        require(amount > 0, ERROR_AMMOUNT_IS_ZERO);\r\n        require(_totalSupply >= amount, \"Withdraw amount of rewards exceeds balance\");\r\n\r\n        uint256 totalSupplyBefore = _totalSupply;\r\n        _token.safeTransfer(msg.sender, amount);\r\n        emit TotalSupplyChanged(totalSupplyBefore, _totalSupply);\r\n    }\r\n\r\n    //Should lock/unlock rewards for beneficiaries?\r\n    //Can be called only by the owner\r\n    function lockRewards(bool lock) external onlyOwner {\r\n        _rewardsIsLocked = lock;\r\n        emit LockRewards(_rewardsIsLocked);\r\n    }\r\n\r\n    //Should transfer reward tokens to beneficiary. Without parameters.\r\n    function claim() public {\r\n        require(_rewardsIsLocked == false, \"Rewards for beneficiaries has locked\");\r\n        require(_totalSupply >= _balances[msg.sender], \"Not enough tokens in the contract\");\r\n\r\n        uint256 totalSupplyBefore = _totalSupply;\r\n        _totalSupply -= _balances[msg.sender];\r\n        _balances[msg.sender] = 0;\r\n        _token.safeTransfer(msg.sender, _balances[msg.sender]);     \r\n        emit TotalSupplyChanged(totalSupplyBefore, _totalSupply);\r\n    }\r\n\r\n    function balanceOf(address account) external view returns (uint256) {\r\n        return _balances[account];\r\n    }\r\n\r\n}",
  "sourcePath": "C:\\Users\\12And\\Desktop\\solidity\\TruffleCustomERC20Token\\contracts\\DistributionContract.sol",
  "compiler": {
    "name": "solc",
    "version": "0.8.14+commit.80d49f37.Emscripten.clang"
  },
  "schemaVersion": "3.4.7",
  "updatedAt": "2022-06-09T14:35:20.439Z",
  "devdoc": {
    "kind": "dev",
    "methods": {
      "deposit(uint256)": {
        "details": "Should transfer tokens from owner to distribution contract. Can only be called by the current owner. Emits an {Approval} event",
        "params": {
          "amount": "Amount of tokens"
        }
      },
      "owner()": {
        "details": "Returns the address of the current owner."
      },
      "renounceOwnership()": {
        "details": "Leaves the contract without owner. It will not be possible to call `onlyOwner` functions anymore. Can only be called by the current owner. NOTE: Renouncing ownership will leave the contract without an owner, thereby removing any functionality that is only available to the owner."
      },
      "transferOwnership(address)": {
        "details": "Transfers ownership of the contract to a new account (`newOwner`). Can only be called by the current owner."
      }
    },
    "version": 1
  },
  "userdoc": {
    "kind": "user",
    "methods": {},
    "version": 1
  }
}