{
  "contractName": "DistributionContract",
  "abi": [
    {
      "inputs": [
        {
          "internalType": "contract IERC20",
          "name": "token",
          "type": "address"
        }
      ],
      "stateMutability": "nonpayable",
      "type": "constructor"
    },
    {
      "anonymous": false,
      "inputs": [
        {
          "indexed": false,
          "internalType": "address",
          "name": "beneficiary",
          "type": "address"
        },
        {
          "indexed": false,
          "internalType": "uint256",
          "name": "balanceBefore",
          "type": "uint256"
        },
        {
          "indexed": false,
          "internalType": "uint256",
          "name": "balanceAfter",
          "type": "uint256"
        }
      ],
      "name": "BeneficiaryBalanceChanged",
      "type": "event"
    },
    {
      "anonymous": false,
      "inputs": [
        {
          "indexed": false,
          "internalType": "address",
          "name": "to",
          "type": "address"
        },
        {
          "indexed": false,
          "internalType": "uint256",
          "name": "amount",
          "type": "uint256"
        }
      ],
      "name": "Claim",
      "type": "event"
    },
    {
      "anonymous": false,
      "inputs": [
        {
          "indexed": false,
          "internalType": "address",
          "name": "from",
          "type": "address"
        },
        {
          "indexed": false,
          "internalType": "uint256",
          "name": "amount",
          "type": "uint256"
        }
      ],
      "name": "Deposit",
      "type": "event"
    },
    {
      "anonymous": false,
      "inputs": [
        {
          "indexed": false,
          "internalType": "address",
          "name": "from",
          "type": "address"
        },
        {
          "indexed": false,
          "internalType": "uint256",
          "name": "amount",
          "type": "uint256"
        }
      ],
      "name": "EmergencyWithdraw",
      "type": "event"
    },
    {
      "anonymous": false,
      "inputs": [
        {
          "indexed": false,
          "internalType": "bool",
          "name": "isLocked",
          "type": "bool"
        }
      ],
      "name": "LockRewards",
      "type": "event"
    },
    {
      "anonymous": false,
      "inputs": [
        {
          "indexed": true,
          "internalType": "address",
          "name": "previousOwner",
          "type": "address"
        },
        {
          "indexed": true,
          "internalType": "address",
          "name": "newOwner",
          "type": "address"
        }
      ],
      "name": "OwnershipTransferred",
      "type": "event"
    },
    {
      "anonymous": false,
      "inputs": [
        {
          "indexed": false,
          "internalType": "uint256",
          "name": "totalSupplyBefore",
          "type": "uint256"
        },
        {
          "indexed": false,
          "internalType": "uint256",
          "name": "TotalSuppleAfter",
          "type": "uint256"
        }
      ],
      "name": "TotalSupplyChanged",
      "type": "event"
    },
    {
      "inputs": [],
      "name": "_rewardsIsLocked",
      "outputs": [
        {
          "internalType": "bool",
          "name": "",
          "type": "bool"
        }
      ],
      "stateMutability": "view",
      "type": "function"
    },
    {
      "inputs": [],
      "name": "_token",
      "outputs": [
        {
          "internalType": "contract IERC20",
          "name": "",
          "type": "address"
        }
      ],
      "stateMutability": "view",
      "type": "function"
    },
    {
      "inputs": [],
      "name": "_totalSupply",
      "outputs": [
        {
          "internalType": "uint256",
          "name": "",
          "type": "uint256"
        }
      ],
      "stateMutability": "view",
      "type": "function"
    },
    {
      "inputs": [],
      "name": "owner",
      "outputs": [
        {
          "internalType": "address",
          "name": "",
          "type": "address"
        }
      ],
      "stateMutability": "view",
      "type": "function"
    },
    {
      "inputs": [],
      "name": "renounceOwnership",
      "outputs": [],
      "stateMutability": "nonpayable",
      "type": "function"
    },
    {
      "inputs": [
        {
          "internalType": "address",
          "name": "newOwner",
          "type": "address"
        }
      ],
      "name": "transferOwnership",
      "outputs": [],
      "stateMutability": "nonpayable",
      "type": "function"
    },
    {
      "inputs": [
        {
          "internalType": "uint256",
          "name": "amount",
          "type": "uint256"
        }
      ],
      "name": "deposit",
      "outputs": [],
      "stateMutability": "nonpayable",
      "type": "function"
    },
    {
      "inputs": [
        {
          "internalType": "address[]",
          "name": "beneficiaries",
          "type": "address[]"
        },
        {
          "internalType": "uint256[]",
          "name": "amounts",
          "type": "uint256[]"
        }
      ],
      "name": "addBeneficiaries",
      "outputs": [],
      "stateMutability": "nonpayable",
      "type": "function"
    },
    {
      "inputs": [
        {
          "internalType": "address",
          "name": "beneficiary",
          "type": "address"
        },
        {
          "internalType": "uint256",
          "name": "amount",
          "type": "uint256"
        }
      ],
      "name": "addBeneficiary",
      "outputs": [],
      "stateMutability": "nonpayable",
      "type": "function"
    },
    {
      "inputs": [
        {
          "internalType": "address",
          "name": "beneficiary",
          "type": "address"
        },
        {
          "internalType": "uint256",
          "name": "amount",
          "type": "uint256"
        }
      ],
      "name": "decreaseReward",
      "outputs": [],
      "stateMutability": "nonpayable",
      "type": "function"
    },
    {
      "inputs": [
        {
          "internalType": "uint256",
          "name": "amount",
          "type": "uint256"
        }
      ],
      "name": "emergencyWithdraw",
      "outputs": [],
      "stateMutability": "nonpayable",
      "type": "function"
    },
    {
      "inputs": [
        {
          "internalType": "bool",
          "name": "lock",
          "type": "bool"
        }
      ],
      "name": "lockRewards",
      "outputs": [],
      "stateMutability": "nonpayable",
      "type": "function"
    },
    {
      "inputs": [],
      "name": "claim",
      "outputs": [],
      "stateMutability": "nonpayable",
      "type": "function"
    },
    {
      "inputs": [
        {
          "internalType": "address",
          "name": "account",
          "type": "address"
        }
      ],
      "name": "balanceOf",
      "outputs": [
        {
          "internalType": "uint256",
          "name": "",
          "type": "uint256"
        }
      ],
      "stateMutability": "view",
      "type": "function"
    }
  ],
  "bytecode": "0x60806040523480156200001157600080fd5b50604051620029483803806200294883398181016040528101906200003791906200025b565b620000576200004b6200011160201b60201c565b6200011960201b60201c565b600073ffffffffffffffffffffffffffffffffffffffff168173ffffffffffffffffffffffffffffffffffffffff1603620000c9576040517f08c379a0000000000000000000000000000000000000000000000000000000008152600401620000c09062000314565b60405180910390fd5b80600160006101000a81548173ffffffffffffffffffffffffffffffffffffffff021916908373ffffffffffffffffffffffffffffffffffffffff1602179055505062000336565b600033905090565b60008060009054906101000a900473ffffffffffffffffffffffffffffffffffffffff169050816000806101000a81548173ffffffffffffffffffffffffffffffffffffffff021916908373ffffffffffffffffffffffffffffffffffffffff1602179055508173ffffffffffffffffffffffffffffffffffffffff168173ffffffffffffffffffffffffffffffffffffffff167f8be0079c531659141344cd1fd0a4f28419497f9722a3daafe3b4186f6b6457e060405160405180910390a35050565b600080fd5b600073ffffffffffffffffffffffffffffffffffffffff82169050919050565b60006200020f82620001e2565b9050919050565b6000620002238262000202565b9050919050565b620002358162000216565b81146200024157600080fd5b50565b60008151905062000255816200022a565b92915050565b600060208284031215620002745762000273620001dd565b5b6000620002848482850162000244565b91505092915050565b600082825260208201905092915050565b7f41646472657373206f662074686520636f6e74726163742073686f756c64206e60008201527f6f74206265207a65726f00000000000000000000000000000000000000000000602082015250565b6000620002fc602a836200028d565b915062000309826200029e565b604082019050919050565b600060208201905081810360008301526200032f81620002ed565b9050919050565b61260280620003466000396000f3fe608060405234801561001057600080fd5b50600436106100ea5760003560e01c80638da5cb5b1161008c578063b6b55f2511610066578063b6b55f25146101fd578063c43a0ba114610219578063ecd0c0c314610235578063f2fde38b14610253576100ea565b80638da5cb5b146101a757806396074e70146101c5578063a9610655146101e1576100ea565b80634e71d92d116100c85780634e71d92d146101475780635312ea8e1461015157806370a082311461016d578063715018a61461019d576100ea565b80630e4afa3a146100ef578063234fe1131461010d5780633eaaf86b14610129575b600080fd5b6100f761026f565b60405161010491906116f5565b60405180910390f35b610127600480360381019061012291906117ae565b610282565b005b61013161054b565b60405161013e91906117fd565b60405180910390f35b61014f610551565b005b61016b60048036038101906101669190611818565b610899565b005b61018760048036038101906101829190611845565b610a69565b60405161019491906117fd565b60405180910390f35b6101a5610ab2565b005b6101af610b3a565b6040516101bc9190611881565b60405180910390f35b6101df60048036038101906101da91906117ae565b610b63565b005b6101fb60048036038101906101f69190611957565b610daa565b005b61021760048036038101906102129190611818565b610ee0565b005b610233600480360381019061022e9190611a04565b611086565b005b61023d611165565b60405161024a9190611a90565b60405180910390f35b61026d60048036038101906102689190611845565b61118b565b005b600160149054906101000a900460ff1681565b61028a611282565b73ffffffffffffffffffffffffffffffffffffffff166102a8610b3a565b73ffffffffffffffffffffffffffffffffffffffff16146102fe576040517f08c379a00000000000000000000000000000000000000000000000000000000081526004016102f590611b08565b60405180910390fd5b600073ffffffffffffffffffffffffffffffffffffffff168273ffffffffffffffffffffffffffffffffffffffff160361036d576040517f08c379a000000000000000000000000000000000000000000000000000000000815260040161036490611b9a565b60405180910390fd5b600081116103b0576040517f08c379a00000000000000000000000000000000000000000000000000000000081526004016103a790611c06565b60405180910390fd5b80600360008473ffffffffffffffffffffffffffffffffffffffff1673ffffffffffffffffffffffffffffffffffffffff168152602001908152602001600020541015610432576040517f08c379a000000000000000000000000000000000000000000000000000000000815260040161042990611cbe565b60405180910390fd5b6000600360008473ffffffffffffffffffffffffffffffffffffffff1673ffffffffffffffffffffffffffffffffffffffff16815260200190815260200160002054905081600360008573ffffffffffffffffffffffffffffffffffffffff1673ffffffffffffffffffffffffffffffffffffffff16815260200190815260200160002060008282546104c59190611d0d565b925050819055507ff96b99a01b4b10f759d52fe7d0965b06ab7bfea22adac96b48ca34779969db148382600360008773ffffffffffffffffffffffffffffffffffffffff1673ffffffffffffffffffffffffffffffffffffffff1681526020019081526020016000205460405161053e93929190611d41565b60405180910390a1505050565b60025481565b60001515600160149054906101000a900460ff161515146105a7576040517f08c379a000000000000000000000000000000000000000000000000000000000815260040161059e90611dea565b60405180910390fd5b6000600360003373ffffffffffffffffffffffffffffffffffffffff1673ffffffffffffffffffffffffffffffffffffffff1681526020019081526020016000205411610629576040517f08c379a000000000000000000000000000000000000000000000000000000000815260040161062090611e7c565b60405180910390fd5b600360003373ffffffffffffffffffffffffffffffffffffffff1673ffffffffffffffffffffffffffffffffffffffff1681526020019081526020016000205460025410156106ad576040517f08c379a00000000000000000000000000000000000000000000000000000000081526004016106a490611f34565b60405180910390fd5b600060025490506000600360003373ffffffffffffffffffffffffffffffffffffffff1673ffffffffffffffffffffffffffffffffffffffff168152602001908152602001600020549050600360003373ffffffffffffffffffffffffffffffffffffffff1673ffffffffffffffffffffffffffffffffffffffff16815260200190815260200160002054600260008282546107499190611d0d565b925050819055506000600360003373ffffffffffffffffffffffffffffffffffffffff1673ffffffffffffffffffffffffffffffffffffffff1681526020019081526020016000208190555061082133600360003373ffffffffffffffffffffffffffffffffffffffff1673ffffffffffffffffffffffffffffffffffffffff16815260200190815260200160002054600160009054906101000a900473ffffffffffffffffffffffffffffffffffffffff1673ffffffffffffffffffffffffffffffffffffffff1661128a9092919063ffffffff16565b7f47cee97cb7acd717b3c0aa1435d004cd5b3c8c57d70dbceb4e4458bbd60e39d43382604051610852929190611f54565b60405180910390a17fc16e0656e8c02e8cf4339f9e9d1c69f3ee797425ca30c7fc6692bbdaab5292038260025460405161088d929190611f7d565b60405180910390a15050565b6108a1611282565b73ffffffffffffffffffffffffffffffffffffffff166108bf610b3a565b73ffffffffffffffffffffffffffffffffffffffff1614610915576040517f08c379a000000000000000000000000000000000000000000000000000000000815260040161090c90611b08565b60405180910390fd5b60008111610958576040517f08c379a000000000000000000000000000000000000000000000000000000000815260040161094f90611c06565b60405180910390fd5b80600254101561099d576040517f08c379a000000000000000000000000000000000000000000000000000000000815260040161099490612018565b60405180910390fd5b600060025490506109f13383600160009054906101000a900473ffffffffffffffffffffffffffffffffffffffff1673ffffffffffffffffffffffffffffffffffffffff1661128a9092919063ffffffff16565b7f5fafa99d0643513820be26656b45130b01e1c03062e1266bf36f88cbd3bd96953383604051610a22929190611f54565b60405180910390a17fc16e0656e8c02e8cf4339f9e9d1c69f3ee797425ca30c7fc6692bbdaab52920381600254604051610a5d929190611f7d565b60405180910390a15050565b6000600360008373ffffffffffffffffffffffffffffffffffffffff1673ffffffffffffffffffffffffffffffffffffffff168152602001908152602001600020549050919050565b610aba611282565b73ffffffffffffffffffffffffffffffffffffffff16610ad8610b3a565b73ffffffffffffffffffffffffffffffffffffffff1614610b2e576040517f08c379a0000000000000000000000000000000000000000000000000000000008152600401610b2590611b08565b60405180910390fd5b610b386000611310565b565b60008060009054906101000a900473ffffffffffffffffffffffffffffffffffffffff16905090565b610b6b611282565b73ffffffffffffffffffffffffffffffffffffffff16610b89610b3a565b73ffffffffffffffffffffffffffffffffffffffff1614610bdf576040517f08c379a0000000000000000000000000000000000000000000000000000000008152600401610bd690611b08565b60405180910390fd5b600073ffffffffffffffffffffffffffffffffffffffff168273ffffffffffffffffffffffffffffffffffffffff1603610c4e576040517f08c379a0000000000000000000000000000000000000000000000000000000008152600401610c45906120aa565b60405180910390fd5b60008111610c91576040517f08c379a0000000000000000000000000000000000000000000000000000000008152600401610c8890611c06565b60405180910390fd5b6000600360008473ffffffffffffffffffffffffffffffffffffffff1673ffffffffffffffffffffffffffffffffffffffff16815260200190815260200160002054905081600360008573ffffffffffffffffffffffffffffffffffffffff1673ffffffffffffffffffffffffffffffffffffffff1681526020019081526020016000206000828254610d2491906120ca565b925050819055507ff96b99a01b4b10f759d52fe7d0965b06ab7bfea22adac96b48ca34779969db148382600360008773ffffffffffffffffffffffffffffffffffffffff1673ffffffffffffffffffffffffffffffffffffffff16815260200190815260200160002054604051610d9d93929190611d41565b60405180910390a1505050565b610db2611282565b73ffffffffffffffffffffffffffffffffffffffff16610dd0610b3a565b73ffffffffffffffffffffffffffffffffffffffff1614610e26576040517f08c379a0000000000000000000000000000000000000000000000000000000008152600401610e1d90611b08565b60405180910390fd5b818190508484905014610e6e576040517f08c379a0000000000000000000000000000000000000000000000000000000008152600401610e6590612192565b60405180910390fd5b60005b84849050811015610ed957610ec6858583818110610e9257610e916121b2565b5b9050602002016020810190610ea79190611845565b848484818110610eba57610eb96121b2565b5b90506020020135610b63565b8080610ed1906121e1565b915050610e71565b5050505050565b610ee8611282565b73ffffffffffffffffffffffffffffffffffffffff16610f06610b3a565b73ffffffffffffffffffffffffffffffffffffffff1614610f5c576040517f08c379a0000000000000000000000000000000000000000000000000000000008152600401610f5390611b08565b60405180910390fd5b60008111610f9f576040517f08c379a0000000000000000000000000000000000000000000000000000000008152600401610f9690611c06565b60405180910390fd5b600060025490508160026000828254610fb891906120ca565b9250508190555061100e333084600160009054906101000a900473ffffffffffffffffffffffffffffffffffffffff1673ffffffffffffffffffffffffffffffffffffffff166113d4909392919063ffffffff16565b7fe1fffcc4923d04b559f4d29a8bfc6cda04eb5b0d3c460751c2402c5c5cc9109c338360405161103f929190611f54565b60405180910390a17fc16e0656e8c02e8cf4339f9e9d1c69f3ee797425ca30c7fc6692bbdaab5292038160025460405161107a929190611f7d565b60405180910390a15050565b61108e611282565b73ffffffffffffffffffffffffffffffffffffffff166110ac610b3a565b73ffffffffffffffffffffffffffffffffffffffff1614611102576040517f08c379a00000000000000000000000000000000000000000000000000000000081526004016110f990611b08565b60405180910390fd5b80600160146101000a81548160ff0219169083151502179055507fd1ab184dfc7335db1582d8a5407ea1342a99a22e3221db39f2861181afdca53d600160149054906101000a900460ff1660405161115a91906116f5565b60405180910390a150565b600160009054906101000a900473ffffffffffffffffffffffffffffffffffffffff1681565b611193611282565b73ffffffffffffffffffffffffffffffffffffffff166111b1610b3a565b73ffffffffffffffffffffffffffffffffffffffff1614611207576040517f08c379a00000000000000000000000000000000000000000000000000000000081526004016111fe90611b08565b60405180910390fd5b600073ffffffffffffffffffffffffffffffffffffffff168173ffffffffffffffffffffffffffffffffffffffff1603611276576040517f08c379a000000000000000000000000000000000000000000000000000000000815260040161126d9061229b565b60405180910390fd5b61127f81611310565b50565b600033905090565b61130b8363a9059cbb60e01b84846040516024016112a9929190611f54565b604051602081830303815290604052907bffffffffffffffffffffffffffffffffffffffffffffffffffffffff19166020820180517bffffffffffffffffffffffffffffffffffffffffffffffffffffffff838183161783525050505061145d565b505050565b60008060009054906101000a900473ffffffffffffffffffffffffffffffffffffffff169050816000806101000a81548173ffffffffffffffffffffffffffffffffffffffff021916908373ffffffffffffffffffffffffffffffffffffffff1602179055508173ffffffffffffffffffffffffffffffffffffffff168173ffffffffffffffffffffffffffffffffffffffff167f8be0079c531659141344cd1fd0a4f28419497f9722a3daafe3b4186f6b6457e060405160405180910390a35050565b611457846323b872dd60e01b8585856040516024016113f5939291906122bb565b604051602081830303815290604052907bffffffffffffffffffffffffffffffffffffffffffffffffffffffff19166020820180517bffffffffffffffffffffffffffffffffffffffffffffffffffffffff838183161783525050505061145d565b50505050565b60006114bf826040518060400160405280602081526020017f5361666545524332303a206c6f772d6c6576656c2063616c6c206661696c65648152508573ffffffffffffffffffffffffffffffffffffffff166115249092919063ffffffff16565b905060008151111561151f57808060200190518101906114df9190612307565b61151e576040517f08c379a0000000000000000000000000000000000000000000000000000000008152600401611515906123a6565b60405180910390fd5b5b505050565b6060611533848460008561153c565b90509392505050565b606082471015611581576040517f08c379a000000000000000000000000000000000000000000000000000000000815260040161157890612438565b60405180910390fd5b61158a85611650565b6115c9576040517f08c379a00000000000000000000000000000000000000000000000000000000081526004016115c0906124a4565b60405180910390fd5b6000808673ffffffffffffffffffffffffffffffffffffffff1685876040516115f2919061253e565b60006040518083038185875af1925050503d806000811461162f576040519150601f19603f3d011682016040523d82523d6000602084013e611634565b606091505b5091509150611644828286611673565b92505050949350505050565b6000808273ffffffffffffffffffffffffffffffffffffffff163b119050919050565b60608315611683578290506116d3565b6000835111156116965782518084602001fd5b816040517f08c379a00000000000000000000000000000000000000000000000000000000081526004016116ca91906125aa565b60405180910390fd5b9392505050565b60008115159050919050565b6116ef816116da565b82525050565b600060208201905061170a60008301846116e6565b92915050565b600080fd5b600080fd5b600073ffffffffffffffffffffffffffffffffffffffff82169050919050565b60006117458261171a565b9050919050565b6117558161173a565b811461176057600080fd5b50565b6000813590506117728161174c565b92915050565b6000819050919050565b61178b81611778565b811461179657600080fd5b50565b6000813590506117a881611782565b92915050565b600080604083850312156117c5576117c4611710565b5b60006117d385828601611763565b92505060206117e485828601611799565b9150509250929050565b6117f781611778565b82525050565b600060208201905061181260008301846117ee565b92915050565b60006020828403121561182e5761182d611710565b5b600061183c84828501611799565b91505092915050565b60006020828403121561185b5761185a611710565b5b600061186984828501611763565b91505092915050565b61187b8161173a565b82525050565b60006020820190506118966000830184611872565b92915050565b600080fd5b600080fd5b600080fd5b60008083601f8401126118c1576118c061189c565b5b8235905067ffffffffffffffff8111156118de576118dd6118a1565b5b6020830191508360208202830111156118fa576118f96118a6565b5b9250929050565b60008083601f8401126119175761191661189c565b5b8235905067ffffffffffffffff811115611934576119336118a1565b5b6020830191508360208202830111156119505761194f6118a6565b5b9250929050565b6000806000806040858703121561197157611970611710565b5b600085013567ffffffffffffffff81111561198f5761198e611715565b5b61199b878288016118ab565b9450945050602085013567ffffffffffffffff8111156119be576119bd611715565b5b6119ca87828801611901565b925092505092959194509250565b6119e1816116da565b81146119ec57600080fd5b50565b6000813590506119fe816119d8565b92915050565b600060208284031215611a1a57611a19611710565b5b6000611a28848285016119ef565b91505092915050565b6000819050919050565b6000611a56611a51611a4c8461171a565b611a31565b61171a565b9050919050565b6000611a6882611a3b565b9050919050565b6000611a7a82611a5d565b9050919050565b611a8a81611a6f565b82525050565b6000602082019050611aa56000830184611a81565b92915050565b600082825260208201905092915050565b7f4f776e61626c653a2063616c6c6572206973206e6f7420746865206f776e6572600082015250565b6000611af2602083611aab565b9150611afd82611abc565b602082019050919050565b60006020820190508181036000830152611b2181611ae5565b9050919050565b7f5468652072657761726420746f6b656e732063616e27742062652072656d6f7660008201527f65642066726f6d20746865207a65726f20616464726573730000000000000000602082015250565b6000611b84603883611aab565b9150611b8f82611b28565b604082019050919050565b60006020820190508181036000830152611bb381611b77565b9050919050565b7f546865207472616e73616374696f6e20616d6f756e74206973207a65726f0000600082015250565b6000611bf0601e83611aab565b9150611bfb82611bba565b602082019050919050565b60006020820190508181036000830152611c1f81611be3565b9050919050565b7f54686520616d6f756e74206f662072657761726420746f6b656e73207468617460008201527f2069732072656d6f76656420657863656564732062656e65666963696172792060208201527f62616c616e636500000000000000000000000000000000000000000000000000604082015250565b6000611ca8604783611aab565b9150611cb382611c26565b606082019050919050565b60006020820190508181036000830152611cd781611c9b565b9050919050565b7f4e487b7100000000000000000000000000000000000000000000000000000000600052601160045260246000fd5b6000611d1882611778565b9150611d2383611778565b925082821015611d3657611d35611cde565b5b828203905092915050565b6000606082019050611d566000830186611872565b611d6360208301856117ee565b611d7060408301846117ee565b949350505050565b7f5265776172647320666f7220616c6c2062656e6566696369617269657320686160008201527f73206c6f636b6564000000000000000000000000000000000000000000000000602082015250565b6000611dd4602883611aab565b9150611ddf82611d78565b604082019050919050565b60006020820190508181036000830152611e0381611dc7565b9050919050565b7f546865726520617265206e6f2072657761726420746f6b656e7320696e20796f60008201527f7572206164647265737300000000000000000000000000000000000000000000602082015250565b6000611e66602a83611aab565b9150611e7182611e0a565b604082019050919050565b60006020820190508181036000830152611e9581611e59565b9050919050565b7f4e6f7420656e6f7567682072657761726420746f6b656e7320696e207468652060008201527f636f6e747261637420746f74616c20737570706c7920746f207769746864726160208201527f77207468656d0000000000000000000000000000000000000000000000000000604082015250565b6000611f1e604683611aab565b9150611f2982611e9c565b606082019050919050565b60006020820190508181036000830152611f4d81611f11565b9050919050565b6000604082019050611f696000830185611872565b611f7660208301846117ee565b9392505050565b6000604082019050611f9260008301856117ee565b611f9f60208301846117ee565b9392505050565b7f576974686472617720616d6f756e74206f662072657761726420746f6b656e7360008201527f206578636565647320746f74616c20737570706c790000000000000000000000602082015250565b6000612002603583611aab565b915061200d82611fa6565b604082019050919050565b6000602082019050818103600083015261203181611ff5565b9050919050565b7f5265776172642063616e277420626520616464656420746f207a65726f20616460008201527f6472657373000000000000000000000000000000000000000000000000000000602082015250565b6000612094602583611aab565b915061209f82612038565b604082019050919050565b600060208201905081810360008301526120c381612087565b9050919050565b60006120d582611778565b91506120e083611778565b9250827fffffffffffffffffffffffffffffffffffffffffffffffffffffffffffffffff0382111561211557612114611cde565b5b828201905092915050565b7f546865206e756d626572206f66206974656d7320696e2074686520617272617960008201527f7320646f65732774206d61746368000000000000000000000000000000000000602082015250565b600061217c602e83611aab565b915061218782612120565b604082019050919050565b600060208201905081810360008301526121ab8161216f565b9050919050565b7f4e487b7100000000000000000000000000000000000000000000000000000000600052603260045260246000fd5b60006121ec82611778565b91507fffffffffffffffffffffffffffffffffffffffffffffffffffffffffffffffff820361221e5761221d611cde565b5b600182019050919050565b7f4f776e61626c653a206e6577206f776e657220697320746865207a65726f206160008201527f6464726573730000000000000000000000000000000000000000000000000000602082015250565b6000612285602683611aab565b915061229082612229565b604082019050919050565b600060208201905081810360008301526122b481612278565b9050919050565b60006060820190506122d06000830186611872565b6122dd6020830185611872565b6122ea60408301846117ee565b949350505050565b600081519050612301816119d8565b92915050565b60006020828403121561231d5761231c611710565b5b600061232b848285016122f2565b91505092915050565b7f5361666545524332303a204552433230206f7065726174696f6e20646964206e60008201527f6f74207375636365656400000000000000000000000000000000000000000000602082015250565b6000612390602a83611aab565b915061239b82612334565b604082019050919050565b600060208201905081810360008301526123bf81612383565b9050919050565b7f416464726573733a20696e73756666696369656e742062616c616e636520666f60008201527f722063616c6c0000000000000000000000000000000000000000000000000000602082015250565b6000612422602683611aab565b915061242d826123c6565b604082019050919050565b6000602082019050818103600083015261245181612415565b9050919050565b7f416464726573733a2063616c6c20746f206e6f6e2d636f6e7472616374000000600082015250565b600061248e601d83611aab565b915061249982612458565b602082019050919050565b600060208201905081810360008301526124bd81612481565b9050919050565b600081519050919050565b600081905092915050565b60005b838110156124f85780820151818401526020810190506124dd565b83811115612507576000848401525b50505050565b6000612518826124c4565b61252281856124cf565b93506125328185602086016124da565b80840191505092915050565b600061254a828461250d565b915081905092915050565b600081519050919050565b6000601f19601f8301169050919050565b600061257c82612555565b6125868185611aab565b93506125968185602086016124da565b61259f81612560565b840191505092915050565b600060208201905081810360008301526125c48184612571565b90509291505056fea264697066735822122066e1f29b2bb163724b70dbdd9e8561bfa4379699bf7edeb886f97667496df90f64736f6c634300080e0033",
  "immutableReferences": {},
  "source": "// SPDX-License-Identifier: MIT\r\npragma solidity ^0.8.9;\r\n\r\nimport \"@openzeppelin/contracts/token/ERC20/ERC20.sol\";\r\nimport '@openzeppelin/contracts/token/ERC20/utils/SafeERC20.sol';\r\nimport \"@openzeppelin/contracts/access/Ownable.sol\";\r\nimport \"./IDistributionContract.sol\";\r\n\r\ncontract DistributionContract is IDistributionContract, Ownable {\r\n    using SafeERC20 for IERC20; \r\n\r\n    IERC20 public _token;\r\n    bool public _rewardsIsLocked;\r\n    uint256 public _totalSupply;\r\n\r\n    mapping(address => uint256) private _balances;\r\n\r\n    event BeneficiaryBalanceChanged(address beneficiary, uint256 balanceBefore, uint256 balanceAfter);\r\n    event TotalSupplyChanged(uint256 totalSupplyBefore, uint256 TotalSuppleAfter);\r\n    event EmergencyWithdraw(address from, uint256 amount);\r\n    event Deposit(address from, uint256 amount);\r\n    event Claim(address to, uint256 amount);\r\n    event LockRewards(bool isLocked);\r\n    \r\n    /**\r\n     * @dev Initializes the accepted token as a reward token.\r\n     * @param token ERC-20 token.\r\n     */\r\n    constructor(IERC20 token) {\r\n        require(address(token) != address(0), \"Address of the contract should not be zero\");\r\n        _token = token;\r\n    }\r\n\r\n    /**\r\n     * @dev Transfers tokens from owner to distribution contract.\r\n     * Can only be called by the current owner.\r\n     *\r\n     * Emits an {TotalSupplyChanged} event that indicates that the total supply has changed.\r\n     * Emits an {Deposit} event that indicates who and how many transferred reward tokens to the contract\r\n     *\r\n     * @param amount Amount of reward token.\r\n     */\r\n    function deposit(uint256 amount) external onlyOwner {\r\n        require(amount > 0, \"The transaction amount is zero\");\r\n\r\n        uint256 totalSupplyBefore = _totalSupply;\r\n        _totalSupply += amount;\r\n        _token.safeTransferFrom(msg.sender, address(this), amount);\r\n        emit Deposit(msg.sender, amount);\r\n        emit TotalSupplyChanged(totalSupplyBefore, _totalSupply);\r\n    }\r\n\r\n    /**\r\n     * @dev ncreases rewards for beneficiaries.\r\n     * Can only be called by the current owner.\r\n     *\r\n     * @param beneficiaries Array of addresses of beneficiaries.\r\n     * @param amounts Array of reward token amounts that will be added to the addresses of beneficiaries.\r\n     */\r\n    function addBeneficiaries(address[] calldata beneficiaries, uint256[] calldata amounts) external onlyOwner {\r\n        require(beneficiaries.length == amounts.length, \"The number of items in the arrays does't match\");\r\n\r\n        for (uint256 i = 0; i < beneficiaries.length; i++) {\r\n            addBeneficiary(beneficiaries[i], amounts[i]);\r\n        }\r\n    }\r\n\r\n    /**\r\n     * @dev ncreases reward for the beneficiary.\r\n     * Can only be called by the current owner.\r\n     *\r\n     * Emits an {BeneficiaryBalanceChanged} event that indicates that the beneficiary balance has changed.\r\n     *\r\n     * @param beneficiary Beneficiary address.\r\n     * @param amount Amount of reward tokens that will be added to the beneficiary address.\r\n     */\r\n    function addBeneficiary(address beneficiary, uint256 amount) public onlyOwner {\r\n        require(beneficiary != address(0), \"Reward can't be added to zero address\");\r\n        require(amount > 0, \"The transaction amount is zero\");\r\n\r\n        uint256 balanceBefore = _balances[beneficiary];\r\n        _balances[beneficiary]  += amount;\r\n        emit BeneficiaryBalanceChanged(beneficiary, balanceBefore, _balances[beneficiary]);\r\n    }\r\n\r\n    /**\r\n     * @dev Decreases rewards for the beneficiary.\r\n     * Can only be called by the current owner.\r\n     *\r\n     * Emits an {BeneficiaryBalanceChanged} event that indicates that the beneficiary balance has changed.\r\n     *\r\n     * @param beneficiary Beneficiary address.\r\n     * @param amount Amount of reward tokens that will be removed from the beneficiary's address.\r\n     */\r\n    function decreaseReward(address beneficiary, uint256 amount) external onlyOwner {\r\n        require(beneficiary != address(0), \"The reward tokens can't be removed from the zero address\");\r\n        require(amount > 0, \"The transaction amount is zero\");\r\n        require(_balances[beneficiary] >= amount, \"The amount of reward tokens that is removed exceeds beneficiary balance\");\r\n\r\n        uint256 balanceBefore = _balances[beneficiary];\r\n        _balances[beneficiary]  -= amount;\r\n        emit BeneficiaryBalanceChanged(beneficiary, balanceBefore, _balances[beneficiary]);\r\n    }\r\n\r\n    /**\r\n     * @dev Transfers the amount of reward tokens back to the owner.\r\n     * Can only be called by the current owner.\r\n     *\r\n     * Emits an {TotalSupplyChanged} event that indicates that the total supply has changed.\r\n     * Emits an {EmergencyWithdraw} event that indicates who and how much withdraw reward tokens from the contract.\r\n     *\r\n     * @param amount Amount of reward tokens.\r\n     */\r\n    function emergencyWithdraw(uint256 amount) external onlyOwner {\r\n        require(amount > 0, \"The transaction amount is zero\");\r\n        require(_totalSupply >= amount, \"Withdraw amount of reward tokens exceeds total supply\");\r\n\r\n        uint256 totalSupplyBefore = _totalSupply;\r\n        _token.safeTransfer(msg.sender, amount);\r\n        emit EmergencyWithdraw(msg.sender, amount);\r\n        emit TotalSupplyChanged(totalSupplyBefore, _totalSupply);\r\n    }\r\n\r\n    /**\r\n     * @dev Lock/unlock rewards for beneficiaries.\r\n     * Can only be called by the current owner.\r\n     *\r\n     * Emits an {LockRewards} event that indicates a change in the rewards payment permit.\r\n     *\r\n     * @param lock lock/unlock rewards payment permit.\r\n     */\r\n    function lockRewards(bool lock) external onlyOwner {\r\n        _rewardsIsLocked = lock;\r\n        emit LockRewards(_rewardsIsLocked);\r\n    }\r\n\r\n    /**\r\n     * @dev Transfers reward tokens to beneficiary.\r\n     * Without parameters.\r\n     *\r\n     * Emits an {TotalSupplyChanged} event that indicates that the total supply has changed.\r\n     * Emits an {Claim} event that indicates who and how much withdraw reward tokens from the contract.\r\n     */\r\n    function claim() external {\r\n        require(_rewardsIsLocked == false, \"Rewards for all beneficiaries has locked\");\r\n        require(_balances[msg.sender] > 0, \"There are no reward tokens in your address\");\r\n        require(_totalSupply >= _balances[msg.sender], \"Not enough reward tokens in the contract total supply to withdraw them\");\r\n\r\n        uint256 totalSupplyBefore = _totalSupply;\r\n        uint amount = _balances[msg.sender];\r\n        _totalSupply -= _balances[msg.sender];\r\n        _balances[msg.sender] = 0;\r\n        _token.safeTransfer(msg.sender, _balances[msg.sender]);   \r\n        emit Claim(msg.sender, amount);  \r\n        emit TotalSupplyChanged(totalSupplyBefore, _totalSupply);\r\n    }\r\n\r\n    /**\r\n     * @dev Check the beneficiary's balance\r\n     * Without parameters.\r\n     */\r\n    function balanceOf(address account) external view returns (uint256) {\r\n        return _balances[account];\r\n    }\r\n\r\n}",
  "sourcePath": "C:\\Users\\12And\\Desktop\\solidity\\TruffleCustomERC20Token\\contracts\\DistributionContract.sol",
  "compiler": {
    "name": "solc",
    "version": "0.8.14+commit.80d49f37.Emscripten.clang"
  },
  "schemaVersion": "3.4.7",
  "updatedAt": "2022-06-10T10:32:44.260Z",
  "devdoc": {
    "kind": "dev",
    "methods": {
      "addBeneficiaries(address[],uint256[])": {
        "details": "ncreases rewards for beneficiaries. Can only be called by the current owner.",
        "params": {
          "amounts": "Array of reward token amounts that will be added to the addresses of beneficiaries.",
          "beneficiaries": "Array of addresses of beneficiaries."
        }
      },
      "addBeneficiary(address,uint256)": {
        "details": "ncreases reward for the beneficiary. Can only be called by the current owner. Emits an {BeneficiaryBalanceChanged} event that indicates that the beneficiary balance has changed.",
        "params": {
          "amount": "Amount of reward tokens that will be added to the beneficiary address.",
          "beneficiary": "Beneficiary address."
        }
      },
      "balanceOf(address)": {
        "details": "Check the beneficiary's balance Without parameters."
      },
      "claim()": {
        "details": "Transfers reward tokens to beneficiary. Without parameters. Emits an {TotalSupplyChanged} event that indicates that the total supply has changed. Emits an {Claim} event that indicates who and how much withdraw reward tokens from the contract."
      },
      "constructor": {
        "details": "Initializes the accepted token as a reward token.",
        "params": {
          "token": "ERC-20 token."
        }
      },
      "decreaseReward(address,uint256)": {
        "details": "Decreases rewards for the beneficiary. Can only be called by the current owner. Emits an {BeneficiaryBalanceChanged} event that indicates that the beneficiary balance has changed.",
        "params": {
          "amount": "Amount of reward tokens that will be removed from the beneficiary's address.",
          "beneficiary": "Beneficiary address."
        }
      },
      "deposit(uint256)": {
        "details": "Transfers tokens from owner to distribution contract. Can only be called by the current owner. Emits an {TotalSupplyChanged} event that indicates that the total supply has changed. Emits an {Deposit} event that indicates who and how many transferred reward tokens to the contract",
        "params": {
          "amount": "Amount of reward token."
        }
      },
      "emergencyWithdraw(uint256)": {
        "details": "Transfers the amount of reward tokens back to the owner. Can only be called by the current owner. Emits an {TotalSupplyChanged} event that indicates that the total supply has changed. Emits an {EmergencyWithdraw} event that indicates who and how much withdraw reward tokens from the contract.",
        "params": {
          "amount": "Amount of reward tokens."
        }
      },
      "lockRewards(bool)": {
        "details": "Lock/unlock rewards for beneficiaries. Can only be called by the current owner. Emits an {LockRewards} event that indicates a change in the rewards payment permit.",
        "params": {
          "lock": "lock/unlock rewards payment permit."
        }
      },
      "owner()": {
        "details": "Returns the address of the current owner."
      },
      "renounceOwnership()": {
        "details": "Leaves the contract without owner. It will not be possible to call `onlyOwner` functions anymore. Can only be called by the current owner. NOTE: Renouncing ownership will leave the contract without an owner, thereby removing any functionality that is only available to the owner."
      },
      "transferOwnership(address)": {
        "details": "Transfers ownership of the contract to a new account (`newOwner`). Can only be called by the current owner."
      }
    },
    "version": 1
  },
  "userdoc": {
    "kind": "user",
    "methods": {},
    "version": 1
  }
}